S0100000457463685F6170702E73726563F0
S214000000C7C20000E6C20000E4C20000E2C2000070
S214000010E0C20000DEC20000DCC20000DAC200005F
S214000020D8C20000D6C200000C94414F0C945E4F1C
S214000030D0C20000CEC200000C9405760C94327636
S2140000400C945F760C948C760C94B9760C94E676C9
S2140000500C9413770C9440770C946D770C949A77E5
S214000060B8C20000B6C20000B4C20000B2C20000AF
S214000070B0C20000AEC20000ACC20000AAC20000BF
S214000080A8C20000A6C200000C94B75AA2C2000084
S214000090A0C200009EC200009CC200009AC20000DF
S2140000A098C2000096C2000094C2000092C20000EF
S2140000B090C200008EC200008CC200000C94D5785E
S2140000C00C9402790C942F790C945C790C948979B1
S2140000D00C94B6797EC200007CC200007AC2000092
S2140000E078C2000076C2000074C2000072C200002F
S2140000F070C200006EC200006CC200006AC200003F
S21400010068C2000066C200000C940A5A62C2000070
S2140001100C945C750C9497750C94D2755AC20000BA
S21400012058C2000056C2000054C2000052C200006E
S21400013050C200000C94C7770C94F4770C94217886
S2140001400C944E780C947B780C94A87842C20000ED
S21400015040C200003EC200003CC200003AC200009E
S21400016038C2000036C2000034C2000032C20000AE
S21400017030C200002EC200002CC200002AC20000BE
S21400018028C2000026C2000024C2000022C20000CE
S21400019020C200001EC200001CC200001AC20000DE
S2140001A018C2000016C2000014C2000012C20000EE
S2140001B00C94E3790C94107A0C943D7A0C946A7A39
S2140001C00C94977A0C94C47A04C2000002C2000011
S2140001D000C20000FEC10000FCC10000FAC1000021
S2140001E0F8C10000F6C10000F4C10000F2C1000032
S2140001F0F0C100000C940F560C94B0576E616E0060
S214000200696E660000407A10F35A00A0724E180914
S2140002100010A5D4E80000E87648170000E40B5468
S214000220020000CA9A3B000000E1F5050000809637
S2140002309800000040420F000000A0860100000069
S214000240102700000000E803000000006400000023
S21400025000000A00000000000100000000002C76EC
S214000260D888DC674F0823DFC1DFAE59E1B1B79607
S214000270E5E3E453C63AE651997696E8E6C2842664
S214000280EB898C9B62ED407C6FFCEFBC9C9F40F240
S214000290BAA56FA5F490055A2AF75C936B6CF967BC
S2140002A06DC11BFCE0E40D47FEF520E6B500D0ED81
S2140002B0902E0300943577050080841E08000020E9
S2140002C04E0A000000C80C333333330F986E128387
S2140002D01141EF8D2114893BE65516CFFEE6DB185B
S2140002E0D1844B381BF77C1D901DA4BBE424203220
S2140002F084725E228100C9F124ECA1E53D2700004E
S2140003000000000000202020202000205050500038
S2140003100000005050F850F850502078A07028F098
S21400032020C0C810204098186090A040A890686030
S21400033020400000000010204040402010402010C8
S21400034010102040005020F8205000002020F820F8
S214000350200000000000602040000000F8000000C0
S21400036000000000006060000810204080007088D8
S21400037098A8C888702060202020207070880810F8
S2140003802040F8F810201008887010305090F810B0
S21400039010F880F008088870304080F0888870F880
S2140003A00810204040407088887088887070888860
S2140003B078081060006060006060000060600060A8
S2140003C02040081020402010080000F800F8000028
S2140003D08040201020408070880810200020708800
S2140003E00868A8A87070888888F88888F08888F0D8
S2140003F08888F070888080808870E09088888890F0
S214000400E0F88080F08080F8F88080E0808080705F
S214000410888080988870888888F8888888702020E7
S21400042020202070381010101090608890A0C0A077
S2140004309088808080808080F888D8A8888888887F
S2140004408888C8A898888870888888888870F0887F
S21400045088F080808070888888A89068F08888F007
S214000460A09088788080700808F0F820202020204F
S2140004702088888888888870888888888850208817
S2140004808888A8A8D8888888502050888888885067
S21400049020202020F80810204080F8382020202037
S2140004A0203800804020100800E02020202020E097
S2140004B020508800000000000000000000F84020E7
S2140004C01000000000000070087888788080B0C8AF
S2140004D08888F0000070808088700808689888888F
S2140004E07800007088F88070304840E04040400057
S2140004F00078887808308080B0C8888888200060B7
S214000500202020701000301010906040404850604E
S2140005105048602020202020700000D0A8A888889E
S2140005200000B0C88888880000708888887000003E
S214000530F088F08080000068987808080000B0C84E
S214000540808080000070807008F04040E0404048A6
S21400055030000088888898680000888888502000C6
S214000560008888A8A850000088502050880000887E
S214000570887808700000F8102040F81020204020EE
S2140005802010202020202020204020201020204046
S21400059011241FBECFEFCDBFDFE9DEBF00E00CBFEA
S2140005A018E2A0E0B0E2ECE4F7E001E00BBF02C026
S2140005B007900D92A038B107D9F721E3A0E8B8E27A
S2140005C001C01D92A23FB207E1F70E94887B0C94FF
S2140005D0A48316CD84E0809391288FEF809386289D
S2140005E00C943E0C2F923F924F925F926F927F92A6
S2140005F08F929F92AF92BF92CF92DF92EF92FF922E
S2140006000F931F93CF93DF93CDB7DEB76097CDBF21
S214000610DEBF8823E9F014E080918628882309F459
S21400062041C0812F6096CDBFDEBFDF91CF911F9175
S2140006300F91FF90EF90DF90CF90BF90AF909F907C
S2140006408F907F906F905F904F903F902F9008957F
S214000650809191288350823008F44CC001E080914C
S214000660A528882309F444C020919428409187281F
S214000670509188286091892870918A28109286283F
S21400068087E898E2809384289093852880E00E94EB
S214000690440C80919128823041F010E080918628A9
S2140006A08111BFCF0E946A0CBCCFE0918428F091E4
S2140006B0852881E083871486108611860E94740C34
S2140006C020E030E0A90160E071E180E090E00E9467
S2140006D0200F81112AC0E0918428F091852883E0BC
S2140006E0828780918628882309F482C013E099CFF8
S2140006F000E0BACF82E08093912880E89AE1A6E0F5
S214000700B0E08093872890938828A0938928B09398
S2140007108A2881E0809394281092A52840E85AE120
S21400072066E070E021E000E0A9CF2AEA31E040E090
S21400073050E068E075E580E090E00E94200F8111AF
S2140007405CC0F12C20E030E0A90165E075E480E0B3
S21400075090E00E94200F81116CC0E0918428F091F7
S2140007608528838580FD8AC1982F9470911193C047
S21400077080FF25C083FFEAC481E4C82E8DE0D82E12
S21400078083E0E82EF12C07C0B1E0CB1AD108E108CF
S214000790F10809F4A0CF20E030E0A9016DE07BE18C
S2140007A080E090E00E94200F882309F494CF0E94F6
S2140007B0310F6111E9CFE0918428F091852801E09E
S2140007C0868D811101C000E0408151816281738174
S2140007D02585809186280E94440CE0918428F0911B
S2140007E085281286809186288823F1F011E019CF9B
S2140007F080E00E946A0C13E014CF0E94310F6F3F16
S2140008002FEF72078207920709F49BCFDC01CB011A
S2140008109F70AA27BB278A3A9140A105B10509F027
S2140008205ACFFF24F3948ECF80E00E946A0C11E02A
S214000830F8CE0E94310F8B019C010027112722273A
S2140008403077012B022B032B09F487CF00E010E052
S21400085007C00F5F1F4F0938F3E11F0709F43BCFAE
S2140008609B01AC01222730784F71552765E075E46F
S21400087080E090E00E94200F882309F42CCF0E948D
S214000880310F97FFE6CFE0918428F091852893FDFD
S214000890F3C084E083878E01075F1F4FF9E0CF2EF9
S2140008A0D12CE12CF12CD8018C91B701A601E9E0FE
S2140008B0440F551F661F771FEA95D1F79A01AB01C3
S2140008C0282B64E373E180E090E00E94200F8823E9
S2140008D021F00E94310FF8016083FFEFCF1ADF0A84
S2140008E0EF0AFF0A0F5F1F4F2DE0C216D104E10486
S2140008F0F104C9F64A84512C542C44248985480EA8
S214000900511C052C000C66087708CE0101964C0198
S214000910DE0114965D01D301C2019F5FAF4FBF4F4A
S2140009208D879E87AF87B88B14018401730162019F
S214000930D8018C91B701A60129E0440F551F661F08
S214000940771F2A95D1F79A01AB01282B64E373E150
S21400095080E090E00E94200F882321F00E94310F53
S214000960F8016083FFEFCF1ADF0AEF0AFF0A0F5F76
S2140009701F4FA016B106E1F689818F3F09F4ABCE72
S2140009808232E1F08A81882309F4A5CE90E00197AF
S214000990092E000CAA0BBB0B0396A11DB11D480E19
S2140009A0591E6A1E7B1E8D859E85AF85B889841567
S2140009B09505A605B70508F0B7CF8DCE8B818111BA
S2140009C0E1CF8E01095F1F4FD1018C91B301A201C7
S2140009D099E0440F551F661F771F9A95D1F79A0125
S2140009E0AB01282B64E373E180E090E00E94200FC7
S2140009F0882321F00E94310FF1016083FFEF4F1A28
S214000A005F0A6F0A7F0A2FEF221A320A02151305B1
S214000A10D9F68E81833308F082E3E0918428F09142
S214000A208528282F277094E0299F900111242D5B9C
S214000A303E4DA82FA695A695A69584E0A89FD00122
S214000A401124CD018D5F9E4DD9012D913D914D9183
S214000A505C91DC016D917D918D919C910E94397F16
S214000A609B01AC01A8EEB3E00E94A07F6083718377
S214000A708283938383857CCE85E08387FF2009F479
S214000A8008C2C12CD12CE12C70E4F72E00E010E057
S214000A9014C0A701960169E271E180E090E00E942F
S214000AA0200F8823A9F00E94310F60FFF6C10F5F68
S214000AB01F4F0F3E2BE1120759F020E030E0A9014E
S214000AC067E371E180E090E00E94200F8111E1CFA2
S214000AD0E0918428F091852882E0838720E030E04A
S214000AE0A90160E071E180E090E00E94200F882379
S214000AF009F4F1CD00E010E007C00F5F1F4F0F3E76
S214000B008BE1180709F4E7CD20E030E0A90161E0A9
S214000B1071E180E090E00E94200F882309F4DBCD8D
S214000B200E94310F60FDE9CF20E030E0A9016AE3C2
S214000B3075E080E090E00E94200F882309F4CBCD7A
S214000B400E94310FDC01CB0188279927AA27B076AF
S214000B500097A105B04409F445C320E030E0A901A0
S214000B606BE371E180E090E00E94200F882309F497
S214000B70B2CDE0918428F091852820853185C90181
S214000B80A0E0B0E0AC0133272227CC24C394EE24A7
S214000B90E394F12C00E110E069E071E188E090E078
S214000BA0BED6882309F497CD809184289091852815
S214000BB061E070E00E960E94CE0F882309F48BCD7C
S214000BC00E946210882309F486CDE0918428F09173
S214000BD08528868590E095958795959587958F705D
S214000BE099278230910509F4FAC20CF4F3C28330D7
S214000BF0910509F4ECC2049709F0FCC280E48487EE
S214000C008189482F50E060E070E093E07695679524
S214000C10579547959A95D1F74F70552766277727AA
S214000C20440F551F440F551F8A010D531F4DA82F03
S214000C30A77024E0A29FD0011124AD5BBE4D2D917C
S214000C403D914D915C91A8EEB3E00E94A07FD80143
S214000C502D913D914D915C910E94397F6083718307
S214000C6082839383068910E0002E012F000C001F5C
S214000C70110B000C001F111F012E000C220B330B52
S214000C80858990E0A0E0B0E0880F991FAA1FBB1FDF
S214000C90880F991FAA1FBB1F448950E060E070E0D0
S214000CA0032E3AE0440F551F661F771F3A95D1F77B
S214000CB0302D842B952BA62BB72B802B912BA22B7C
S214000CC0B32BAC01BD015F70662777274F3FBFE0AF
S214000CD05B076105710509F448C0808D90E06C01E2
S214000CE0CC0CCD2CCC1CDD08C601DD0CAA0BBB0B36
S214000CF0C788D12CE12CF12CCC0CDD1CEE1CFF1C83
S214000D00C82AD92AEA2AFB2A83898F7001E010E0D4
S214000D10D80102C0AA0FBB1F8A95E2F79A01AB0161
S214000D202F5F3F4F4F4F5F4F0E94AA7F9B01AC0142
S214000D3087E0C822DD24EE24FF2492E0C90ED11CF1
S214000D40D80102C0AA0FBB1FCA94E2F70E94AA7F6E
S214000D50DC01CB010AE0B695A795979587950A958D
S214000D60D1F784839583A683B7838485803408F47B
S214000D7067C0C12CEE24E394F12C00E012E020E0E2
S214000D8030E0A90168E071E188E090E0C8D58823EA
S214000D9009F4A1CC02E310E0CE0109960E943A0FB6
S214000DA0882309F498CC01501109B1F7E091842802
S214000DB0F0918528868990E0082E892F000C881FE0
S214000DC0990B000C881F991F8C01990F220B330B6F
S214000DD0858990E0A0E0B0E0880F991FAA1FBB1F8E
S214000DE0880F991FAA1FBB1F448950E060E070E07F
S214000DF0EAE0440F551F661F771FEA95D1F7842B4C
S214000E00952BA62BB72B802B912BA22BB32B9F7049
S214000E10AA27BB278F3F9F40A105B10509F4F0C163
S214000E2002E310E0DE0111964D01C4010E943A0F64
S214000E30882309F450CC0F5F1F4F00381105A9F71F
S214000E4020E032E040E050E060E171E180E090E0D8
S214000E50F7D7882309F43FCC91E4C92E9DE0D92E1C
S214000E6093E0E92EF12C20E030E0A9016DE07BE173
S214000E7080E090E0E5D7882309F42DCCF2D76623EE
S214000E8009F499CCB1E0CB1AD108E108F10859F77A
S214000E9022CCC12CD12C7601F9CD20E030E0A9017E
S214000EA06AE375E080E090E0CBD7882309F410CEA3
S214000EB0D8D796FF07C0E0918428F09185288385CF
S214000EC08860838720E030E0A9016BE371E180E071
S214000ED090E0B6D7882309F4FECBE0918428F09101
S214000EE08528838580FF62C120853185C901A0E001
S214000EF0B0E0AC0133272227CC24C394EE24E3943D
S214000F00F12C00E110E069E071E188E090E007D59F
S214000F10882309F4E0CB809184289091852861E0AD
S214000F2070E00E960E94CE0F882309F4D4CB0E9460
S214000F306210882309F4CFCBE0918428F0918528AD
S214000F408189482F50E060E070E0A3E076956795D1
S214000F5057954795AA95D1F74F7055276627772757
S214000F60440F551F440F551F8A010D5F1E4DA82FB5
S214000F70A77024E0A29FD0011124AD5BBE4D2D9139
S214000F803D914D915C91A8EEB3E00E94A07FD80100
S214000F902D913D914D915C910E94397F60837183C4
S214000FA082839383868590E0082E892F000C881F05
S214000FB0990B000C881F991F892B09F0DBC0068946
S214000FC010E0002E012F000C001F110B000C001F5C
S214000FD0111F012E000C220B330B858990E0A0E038
S214000FE0B0E0880F991FAA1FBB1F880F991FAA1F62
S214000FF0BB1F448950E060E070E0032E3AE0440FE7
S214001000551F661F771F3A95D1F7302D842B952BE9
S214001010A62BB72BAC01BD01402B512B622B732B9B
S214001020808D90E06C01CC0CCD2CCC1CDD08C6016C
S214001030DD0CAA0BBB0BC788D12CE12CF12CCC0CF9
S214001040DD1CEE1CFF1CC82AD92AEA2AFB2A838943
S2140010508F7001E010E0D80102C0AA0FBB1F8A956E
S214001060E2F75F70662777279A01AB012F5F3F4F45
S2140010704F4F5F4F0E94AA7F9B01AC01B7E0CB2287
S214001080DD24EE24FF2482E0C80ED11CD80102C065
S214001090AA0FBB1FCA94E2F70E94AA7FDC01CB010D
S2140010A03AE0B695A795979587953A95D1F78483B4
S2140010B09583A683B78320853185C901A0E0B0E07B
S2140010C0AC013327222767E371E180E090E0B8D6D1
S2140010D0882309F400CBCC24C394EE24E394F12CAB
S2140010E008E010E020E030E0A90163E371E188E069
S2140010F090E015D4882309F4EECA61E070E0CE01D2
S21400110001964CD7882309F4E6CADCD7882309F46D
S214001110E2CA89818F70813009F452C008F449C050
S214001120823009F046C08B8190E0880F892F881F97
S214001130990BE0918428F0918528019709F45DC009
S21400114080E284878385982F947010CB20E032E06D
S21400115040E050E060E171E180E090E071D68823E5
S21400116009F4B9CAE0918428F0918528838580FD2A
S21400117003CB25CB27893689858990E0A0E0B0E0AF
S214001180DC0199278827932B822BAF73BB27019608
S214001190A11DB11D59E0880F991FAA1FBB1F5A95A4
S2140011A0D1F784839583A683B78385CF82FF07CB49
S2140011B072CBE0918428F091852880E18487C2CFA5
S2140011C0E0918428F09185288AE18487BBCF80E36C
S2140011D0848716CD019771F484E1848711CD82E26D
S2140011E084870ECDE0918428F091852883858860D9
S2140011F08387B3CC82E1848703CD80E38487A2CF44
S21400120004E010E0CE0101964C01C40133D68823D9
S21400121009F461CA01501109C1F7E0918428F091E0
S214001220852889819A81AB81BC81B695A7959795CB
S214001230879584839583A683B78306E310E0F5CD70
S2140012400F93882319F080E00F91089580919128DC
S2140012508350823060F101E08091A528882319F13F
S2140012602091942840918728509188286091892859
S21400127070918A281092862887E898E280938428BE
S2140012809093852880E000D3809191288230D9F20F
S21400129080918628882349F0E0918428F09185285B
S2140012A083850F91089500E0DBCF14D3F5CF82E05D
S2140012B08093912880E89AE1A6E0B0E080938728A2
S2140012C090938828A0938928B0938A2881E08093F9
S2140012D094281092A52840E85AE166E070E021E0E4
S2140012E000E0C8CF0F93882329F060E070E0CB01C0
S2140012F00F910895809191288350823078F101E013
S2140013008091A528882331F1209194284091872840
S214001310509188286091892870918A281092862892
S21400132087E898E2809384289093852880E0ACD262
S214001330809191288230C9F280918628882361F0B6
S214001340E0918428F0918528648175818681978153
S2140013500F91089500E0D8CFBDD2F2CF82E08093FF
S214001360912880E89AE1A6E0B0E0809387289093E1
S2140013708828A0938928B0938A2881E080939428AF
S2140013801092A52840E85AE166E070E021E000E00F
S214001390C5CF80E008958F929F92AF92BF92CF9272
S2140013A0DF92EF92FF920F931F93CF93DF934A0142
S2140013B05B01E901882371F084E0DF91CF911F91F2
S2140013C00F91FF90EF90DF90CF90BF90AF909F90DF
S2140013D08F900895809191288350823008F470C0D1
S2140013E001E08091A528882309F43AC0209194282A
S2140013F040918728509188286091892870918A2882
S2140014001092862887E898E280938428909385280F
S21400141080E03AD280919128823009F471C031E49C
S214001420C32E3DE0D32E33E0E32EF12C09C019D5B0
S2140014306623C1F081E0C81AD108E108F10851F02E
S21400144020E030E0A9016DE07BE180E090E0F8D498
S2140014508111EDCF80918628882371F185E0ADCF8C
S21400146000E0C4CFC230D10508F445C062E171E1A6
S21400147080E190E0E0918428F0918528238523FD83
S21400148007C029E0880C991CAA1CBB1C2A95D1F71A
S214001490CC24C3947E0100E012E0A50194013FD263
S2140014A08823C1F2C0938028D0938128C0938228D5
S2140014B0D093832880E081CF80E00CD285E07DCF7A
S2140014C082E08093912880E89AE1A6E0B0E08093DD
S2140014D0872890938828A0938928B0938A2881E04B
S2140014E0809394281092A52840E85AE166E070E0C0
S2140014F021E000E085CF61E171E188E090E0BACFBD
S21400150081E05BCFCF93DF93EB0148D5811108C014
S214001510109280281092812885E0DF91CF9108955F
S21400152080918028909181288C1B9D0B8093802829
S2140015309093812880E0DF91CF910895CF93C82FB4
S214001540C1D5811103C085E0CF910895C1111DC09A
S2140015508091802890918128892BA1F480918228FF
S21400156090918328019751F020E030E0A9016CE0CB
S21400157071E380E090E064D4882381F0809186282F
S214001580882341F080E0CF91089510928028109231
S2140015908128E4CF80E09ED180E0F5CF20E030E0E7
S2140015A0A9016CE071E380E090E04AD4E7CF8F9227
S2140015B09F92AF92BF92CF92EF92FF920F931F939C
S2140015C0CF93DF934A015B01E901882369F084E049
S2140015D0DF91CF911F910F91FF90EF90CF90BF902A
S2140015E0AF909F908F90089580919128835082307D
S2140015F008F458C001E08091A528882309F448C063
S21400160020919428409187285091882860918928B5
S21400161070918A281092862887E898E2809384281A
S2140016209093852880E030D180919128823009F40B
S21400163054C0C230D10570F169E171E980E190E0F3
S214001640E0918428F0918528238523FD07C029E0B2
S214001650880C991CAA1CBB1C2A95D1F7CC24C394D1
S2140016607E0100E012E0A501940159D1811106C067
S21400167080918628882399F085E0AACFC093802899
S214001680D0938128C0938228D093832880E0A0CF6F
S21400169000E0B6CF68E171E988E090E0D1CF1AD1DA
S2140016A085E096CF82E08093912880E89AE1A6E0D4
S2140016B0B0E08093872890938828A0938928B093D9
S2140016C08A2881E0809394281092A52840E85AE161
S2140016D066E070E021E000E09DCF81E079CFCF9317
S2140016E0DF93EB01F1D4811108C01092802810928C
S2140016F0812885E0DF91CF91089580918028909190
S21400170081288C1B9D0B809380289093812880E0F5
S214001710DF91CF910895CF93C82FCDD5811104C006
S214001720C5E08C2FCF910895C1110EC080918028FE
S21400173090918128892B21F4C0918628CC2349F0EA
S214001740C0E08C2FCF9108951092802810928128A7
S214001750F3CF80E0BFD0E5CF80E00E94F202813078
S21400176091F040F0823021F41092A62882E008958D
S21400177081E008958091A6288111F8CF61DD8370FD
S214001780A9F380E0089583E00895CF93DF93EC01FA
S21400179080E0A8DDDC01CB01880F991FAA1FBB1FC4
S2140017A00197A109B10988839983AA83BB8380E046
S2140017B00E94F2028130B1F060F0823021F081E0C8
S2140017C0DF91CF9108951092A62882E0DF91CF9105
S2140017D008958091A6288111F8CF32DD8370A9F391
S2140017E080E0EECF83E0DF91CF91089580E0D1CD09
S2140017F0CF93DF93EA0121E030E0AB01BC0180E04B
S214001800CADD882361F0823029F091E0892FDF91CC
S214001810CF91089592E0892FDF91CF91089561E0EE
S21400182070E0CE016FDE8111F0CF88DE91E081118D
S214001830EDCF90E0EBCFCF93DF93EA0121E030E0ED
S214001840AB01BC0180E0B3DE882361F0823029F072
S21400185091E0892FDF91CF91089592E0892FDF9153
S214001860CF91089561E070E0CE0139DF8111F0CFAD
S21400187052DF91E08111EDCF90E0EBCF1092B428CB
S21400188080EA98E00C946A72CF92DF92EF92FF9211
S2140018900F931F93CF93DF931092B428C82FD0E0F6
S2140018A0CA5FDF4DC12CD12C76018A019B0140E036
S2140018B0BE0180EA98E00E947F72BE0180EA98E04E
S2140018C0DF91CF911F910F91FF90EF90DF90CF9017
S2140018D00C94C8721092B428682F70E06A5F7F4D2F
S2140018E080EA98E00C94DE721F93CF93DF931F92EA
S2140018F0CDB7DEB78FEF89831092B4281AE041E0A7
S21400190050E0BE016F5F7F4F80EA98E00E949972B8
S2140019101150A9F70F90DF91CF911F9108954F9224
S2140019205F926F927F928F929F92AF92BF92DF925A
S214001930EF92FF920F931F93CF93DF93CDB7DEB74F
S2140019402997CDBFDEBF4B015C018FEF89871092D0
S214001950B428982D9F73906499835A834B833C8355
S2140019602D83990F80E0282F2927382F396027FDEF
S214001970EDC1990F880F382F392729E0282737FD22
S214001980E3C1990F880F382F392729E0282737FD1C
S214001990D9C1990F880F382F392729E0282737FD16
S2140019A0CFC1990F880F382F392729E0282737FD10
S2140019B0C5C1990F880F382F392729E0282737FD0A
S2140019C0BBC1880F990F982729E0282797FDB2C139
S2140019D09A81880F382F392729E0282737FDA8C194
S2140019E0990F880F382F392729E0282737FD9EC101
S2140019F0990F880F382F392729E0282737FD94C1FB
S214001A00990F880F382F392729E0282737FD8AC1F4
S214001A10990F880F382F392729E0282737FD80C1EE
S214001A20990F880F382F392729E0282737FD76C1E8
S214001A30990F880F382F392729E0282737FD6CC1E2
S214001A40880F990F982729E0282797FD63C19B8167
S214001A50880F392F382729E0282737FD59C1990FD5
S214001A60880F392F382729E0282737FD4FC1990FCF
S214001A70880F392F382729E0282737FD45C1990FC9
S214001A80880F392F382729E0282737FD3BC1990FC3
S214001A90880F392F382729E0282737FD31C1990FBD
S214001AA0880F392F382729E0282737FD27C1990FB7
S214001AB0880F392F382729E0282737FD1DC1880FC2
S214001AC0990F982729E0282797FD14C19C81880F35
S214001AD0392F382729E0282737FD0AC1990F880FA4
S214001AE0392F382729E0282737FD00C1990F880F9E
S214001AF0392F382729E0282737FDF6C0990F880F99
S214001B00392F382729E0282737FDECC0990F880F92
S214001B10392F382729E0282737FDE2C0990F880F8C
S214001B20392F382729E0282737FDD8C0990F880F86
S214001B30392F382729E0282737FDCEC0880F990F80
S214001B40982729E0282797FDC5C09D81880F392F43
S214001B50382729E0282737FDBBC0990F880F392F73
S214001B60382729E0282737FDB1C0990F880F392F6D
S214001B70382729E0282737FDA7C0990F880F392F67
S214001B80382729E0282737FD9DC0990F880F392F61
S214001B90382729E0282737FD93C0990F880F392F5B
S214001BA0382729E0282737FD89C0990F880F392F55
S214001BB0382729E0282737FD7FC0880F990F9827F8
S214001BC029E0282797FD76C0880F81608E8341E044
S214001BD050E0BE01675F7F4F80EA98E00E949972EE
S214001BE046E050E0BE016F5F7F4F80EA98E00E94BB
S214001BF099728FEF888741E050E0BE01685F7F4FA3
S214001C0080EA98E00E94B07297E0D92E41E050E05A
S214001C10BE01685F7F4F80EA98E00E94B0728885B8
S214001C2087FF1AC0DA94D110F1CF82E08093B428EF
S214001C3080E02996CDBFDEBFDF91CF911F910F9137
S214001C40FF90EF90DF90BF90AF909F908F907F9027
S214001C506F905F904F900895482F50E060E070E0DE
S214001C604093B0285093B1286093B2287093B3285D
S214001C7083FD6EC082FD71C04E7F452B462B472BE1
S214001C8009F0D4C095FC6EC091FCBFC092FCA2C007
S214001C900093AA281093AB28E092A828F092A928CF
S214001CA01092AC281092AD281092AE281092AF2851
S214001CB081E0BFCF822F88CF822F7FCF822F75CF34
S214001CC0822F6BCF822F61CF822F57CF822F4DCF9F
S214001CD0822F43CF822F39CF822F30CF822F26CF2D
S214001CE0822F1CCF822F12CF822F08CF822FFECEBC
S214001CF0822FF4CE822FEACE822FE1CE822FD7CE4D
S214001D00822FCDCE822FC3CE822FB9CE822FAFCEDA
S214001D10822FA5CE822F9BCE822F92CE822F88CE68
S214001D20822F7ECE822F74CE822F6ACE822F60CEF6
S214001D30822F56CE822F4CCE822F43CE822F39CE84
S214001D40822F2FCE822F25CE822F1BCE832F11CE11
S214001D5086E08093B42880E06CCF89E08093B42836
S214001D6080E067CF8FEF8F8341E050E0BE01695F70
S214001D707F4F80EA98E00E94B07241E050E0BE01DA
S214001D80695F7F4F80EA98E00E94B07241E050E0C1
S214001D90BE01695F7F4F80EA98E00E94B07280E4DF
S214001DA0482E8DE0582E83E0682E712C0FC041E03F
S214001DB050E0BE01695F7F4F80EA98E00E94B072F3
S214001DC081E0481A510861087108A9F18F818F3F98
S214001DD071F75ACF44E050E060EB78E280EA98E092
S214001DE00E94B0726091B0287091B1288091B2289C
S214001DF09091B3280E947E7F6093B0287093B1289C
S214001E008093B2289093B32843CF1092B0281092B4
S214001E10B1281092B2281092B32841E050E060EB4F
S214001E2078E280EA98E00E94B07230CF81E080933A
S214001E30B42880E0FECE83E08093B42880E0F9CE1C
S214001E40CF92EF92FF920F931F93C12CE12CF12CAF
S214001E5000E010E064DD1F910F91FF90EF90CF90AF
S214001E6008956091B0287091B1288091B228909121
S214001E70B3280895CF92DF92EF92FF920F931F93AD
S214001E80CF93DF931F921F92CDB7DEB78C011092CF
S214001E90B4282091AA283091AB2840E050E0609109
S214001EA0AC287091AD288091AE289091AF280E9402
S214001EB05C7F672B682B692B39F5198280E2C82E68
S214001EC081EAD82E87E0E82EF12C09C08E3FE1F09B
S214001ED081E0C81AD108E108F10809F45AC041E0C7
S214001EE050E0BE016F5F7F4F80EA98E00E94B072BC
S214001EF08981982F907F51F7877009F445C087E055
S214001F008093B42880E02AC044E050E0B80180EA1C
S214001F1098E00E94B0728091AC289091AD28A09174
S214001F20AE28B091AF28BC01CD016C5F7F4F8F4FBC
S214001F309F4F6093AC287093AD288093AE28909303
S214001F40AF282091AA283091AB2840E050E00E94AC
S214001F505C7F672B682B692B61F081E00F900F90F8
S214001F60DF91CF911F910F91FF90EF90DF90CF9070
S214001F70089542E050E0BE016F5F7F4F80EA98E030
S214001F800E94B07281E0EACF8BE08093B42880E0B4
S214001F90E5CF84E08093B42880E0E0CF4F925F9254
S214001FA06F927F92AF92BF92CF92DF92EF92FF92A4
S214001FB00F931F93CF93DF931F921F92CDB7DEB779
S214001FC01092B4286115710509F472C05C01412CA9
S214001FD0512C32018B01198280E2C82E81EAD82E5C
S214001FE087E0E82EF12C09C09E3F61F181E0C81A17
S214001FF0D108E108F10809F461C041E050E0BE01F3
S2140020006F5F7F4F80EA98E00E94B0729981892FB7
S214002010807F51F7977009F44DC087E08093B4280D
S21400202080E00F900F90DF91CF911F910F91FF905E
S214002030EF90DF90CF90BF90AF907F906F905F90C3
S2140020404F9008954091AA285091AB28B501640D91
S214002050751D80EA98E00E94B0728091AA2890913F
S214002060AB28A0E0B0E0480E591E6A1E7B1E4091C9
S214002070AC285091AD286091AE287091AF28840F9F
S214002080951FA61FB71F8093AC289093AD28A093EA
S214002090AE28B093AF2842E050E0BE016F5F7F4F9E
S2140020A080EA98E00E94B0720150110909F093CFBF
S2140020B081E0B7CF8BE08093B428B2CF84E08093E2
S2140020C0B428AECF81E008952F923F924F925F9250
S2140020D06F927F928F929F92AF92BF92CF92DF9233
S2140020E0EF92FF920F931F93CF93DF9300D0CDB75D
S2140020F0DEB76C011092B428412C512C32013324E7
S2140021003A949CEF292EEE24EA94FE2C8B01015083
S2140021101109672B09F487C03B8241E050E0BE01FD
S2140021206D5F7F4F80EA98E00E9499728091A828A0
S2140021309091A928019709F4B3C0298241E050E0A4
S214002140BE016F5F7F4F80EA98E00E9499724091CF
S214002150AA285091AB28B601640D751D80EA98E058
S2140021600E9499728091AA289091AB28A0E0B0E0D6
S214002170480E591E6A1E7B1E4091AC285091AD2811
S2140021806091AE287091AF28840F951FA61FB71FC9
S2140021908093AC289093AD28A093AE28B093AF2838
S2140021A0E982FA8242E050E0BE016F5F7F4F80EA2C
S2140021B098E00E94997241E050E0BE016D5F7F4F4B
S2140021C080EA98E00E94B0728B8184FD65C080FF33
S2140021D063C08E718430E9F08A3009F064C088E00C
S2140021E08093B42880E02396CDBFDEBFDF91CF91E9
S2140021F01F910F91FF90EF90DF90CF90BF90AF9020
S2140022009F908F907F906F905F904F903F902F9011
S21400221008950115110549F4B8018B010150110903
S214002220672B09F079CF81E0DECF398241E050E0BC
S214002230BE016F5F7F4F80EA98E00E94B07241E077
S21400224050E0BE016F5F7F4F80EA98E00E94B07258
S21400225041E050E0BE016F5F7F4F80EA98E00E9449
S214002260B07280E4882E8DE0982E83E0A82EB12CE4
S2140022700FC041E050E0BE016F5F7F4F80EA98E0FC
S2140022800E94B07281E0881A9108A108B10879F01E
S21400229089818F3F71F7C0CF81E08093B428A2CFA9
S2140022A08EEF89834BCF8AE08093B4289BCF85E05E
S2140022B08093B42897CFCF92DF92EF92FF921F932E
S2140022C0CF93DF931F921F92CDB7DEB78FEF898330
S2140022D041E050E0BE016F5F7F4F80EA98E00E94C9
S2140022E0B07241E050E0BE016F5F7F4F80EA98E039
S2140022F00E94B07241E050E0BE016F5F7F4F80EAFF
S21400230098E00E94B07290E4C92E9DE0D92E93E02A
S214002310E92EF12C0FC041E050E0BE016F5F7F4F09
S21400232080EA98E00E94B07281E0C81AD108E108FD
S214002330F10821F119811F3F71F7C090A828D090AD
S214002340A92881E0C816D104B9F0E12CF12C20911F
S214002350AA283091AB2840E050E06091AC287091FC
S214002360AD288091AE289091AF280E945C7F2C15F6
S2140023703D054E055F0580F481E004C085E080934E
S214002380B42880E00F900F90DF91CF911F91FF90BF
S214002390EF90DF90CF9008951A8341E050E0BE01A1
S2140023A06E5F7F4F80EA98E00E9499728DEF8A8375
S2140023B041E050E0BE016E5F7F4F80EA98E00E94E9
S2140023C09972198341E050E0BE016F5F7F4F80EA4B
S2140023D098E00E94B07241E050E0BE016F5F7F4F10
S2140023E080EA98E00E94B07241E050E0BE016F5F64
S2140023F07F4F80EA98E00E94B07280E4C82E8DE09D
S214002400D82E83E0E82EF12C10C041E050E0BE014B
S2140024106F5F7F4F80EA98E00E94B07281E0C81A32
S214002420D108E108F10809F4A9CF89818F3F69F73F
S21400243081E0A8CF4F925F926F927F928F929F9289
S214002440AF92BF92CF92DF92EF92FF920F931F93BD
S214002450CF93DF93EA0122EB37E02D833E831C8285
S21400246020E831E541E050E00E945C7F69017A0196
S2140024702B013C01ECE38E2E912CA12CB12CA50156
S21400248094010E945C7F6883C301B20120E13EE0B4
S21400249040E050E00E945C7F122FA50194010E944C
S2140024A05C7F29831A83C701B6016C5F7F4F8F4F0D
S2140024B09F4F27E030E040E050E00E945C7F6F8353
S2140024C042EB57E0F4E69F2EE0E9F1E054C08A01C3
S2140024D016950795169507959801ABE7B4E10E9407
S2140024E08B7F96958795989E9001999E300D112426
S2140024F04217530709F052C05A01B294A2942FE033
S214002500A222AB24B222AB249501AEE3BAE00E942D
S2140025108B7FBC016E9FC0016F9F900D7E9F900DBC
S21400252011249A01281B390BC901009709F06DC0C8
S2140025306EE6C61661E0D606E104F104F0F19501F8
S214002540AEE3BAE00E948B7F9C012E9FC0012F9FB6
S214002550900D3E9F900D112448175907D1F48EE632
S21400256091E0A0E0B0E0C81AD90AEA0AFB0A4F5F79
S2140025705F4F4D835E83CA0183709927892B09F4C8
S214002580A6CF7DE6C71671E0D706E104F10408F48D
S2140025904EC08DE691E0A0E0B0E0E5CF3EE6C31683
S2140025A031E0D306E104F104D0F65A01B294A294C5
S2140025B08FE0A822AB24B822AB249801ABE7B4E1A5
S2140025C00E948B7FFC01F695E79524E62E9FC001BE
S2140025D02F9F900D1124FA01E81BF90B9501AEE32D
S2140025E0BAE00E948B7F20E931E0BC01629FC00107
S2140025F0639F900D729F900D1124481B590B20E08D
S21400260091F4EF2B09F054C03FC02DE6C21621E02E
S214002610D206E104F10408F092CFE0E0F0E0AC016D
S21400262020E0452B71F3EF2B09F056C069C020E07F
S21400263005C0C81AD90AEA0AFB0A2C83E22FF0E082
S214002640E15AFE4D808190E0A0E0B0E02F5FC81612
S214002650D906EA06FB0668F7CB82DF91CF911F9179
S2140026600F91FF90EF90DF90CF90BF90AF909F902C
S2140026708F907F906F905F904F900895C81AD90AF8
S214002680EA0AFB0A2F5F2C83E22FF0E0E15AFE4DA8
S214002690848590E0A0E0B0E0C816D906EA06FB06FE
S2140026A068F7DACFC81AD90AEA0AFB0A2F5F2C8322
S2140026B0E22FF0E0E15AFE4D848590E0A0E0B0E025
S2140026C0C816D906EA06FB0668F7C6CFC81AD90A9E
S2140026D0EA0AFB0A2F5F2C83E22FF0E0E15AFE4D58
S2140026E0848590E0A0E0B0E0C816D906EA06FB06AE
S2140026F068F7B2CFC81AD90AEA0AFB0A2F5F2C83FA
S214002700E22FF0E0E15AFE4D808190E0A0E0B0E0DC
S214002710C816D906EA06FB0668F79ECF882311F08E
S21400272081E0089519C8882311F081E00895CB014F
S2140027302CC891E0811190E0892F0895882311F02C
S21400274081E0089553C8CF92DF92EF92FF926A011C
S2140027507B01882331F081E0FF90EF90DF90CF90EF
S2140027600895A901C701B601FF90EF90DF90CF90C2
S2140027703FC8CF92DF92EF92FF926A017B018823D7
S21400278031F081E0FF90EF90DF90CF900895A9019F
S214002790C701B601FF90EF90DF90CF904CC8109223
S2140027A0CA291092D6291092D729ECECF9E281EAD0
S2140027B0808380E28183128213821482158282E0F3
S2140027C090E08683978310861186E8EDF9E280E034
S2140027D092ECA1E0B0E080839183A283B38314825D
S2140027E0158288E086838091CA298F5F8093CA29E4
S2140027F081E008958091CA2981508093CA2908955E
S2140028008091C92981508093C9298091C929109245
S214002810C829089580E0089580E00895089580917D
S214002820BC2D87FD05C080768032D9F080E0089503
S21400283080768032D9F78091BD2D8132B9F78091AC
S214002840C22D9091C32D8730910581F728ED39E28E
S2140028502093C42D3093C52D8093C62D9093C72DFD
S21400286006C08091BD2D803221F08232F9F681E0DB
S21400287008958091C22D9091C32D87309105B1F6B1
S2140028802EE034E12093C82D3093C92DDFCFCF92B0
S214002890DF92EF92FF920F931F93CF93DF931F92D7
S2140028A0CDB7DEB78FB78983F894C980D090BB28A0
S2140028B00D2D10E07801EE0CFF1CF701E454F74DE7
S2140028C080819181892B09F45BC01092B528109203
S2140028D0B6288091B728882309F447C091E080E0A5
S2140028E0D11090E0092F182F7801EE0CFF1C81E024
S2140028F08093B828CFBEF701E454F74D208131818C
S214002900DD24D3942034310509F45DC0203431052C
S21400291091F10E948553882309F457C00E94925370
S2140029208093B9289093BA28F701E454F74D208194
S2140029303181A801002456954795079456954795EA
S2140029400794542F402D4054574D01EF14E16D2D40
S21400295081E80E940D550F90DF91CF911F910F9146
S214002960FF90EF90DF90CF90089581E0D11080E047
S2140029708093BB28BCCF1092B9281092BA28D9CF22
S2140029808091B5289091B62801968093B5289093AB
S214002990B6280E948553811107C08091B528909172
S2140029A0B6288436910568F00E948553882309F47A
S2140029B08CCF8091B5289091B6288032934008F04D
S2140029C084CFCFBEC8CFD12CA1CF0E948D53809389
S2140029D0B9289093BA28F701E454F74D2081318145
S2140029E0A8CFCF93DF93882319F0DF91CF91089576
S2140029F02091BB2881E090E021111FC0880F991F0D
S214002A00FC01E454F74D108211821092B728109200
S214002A10B8288091B8288111E8CF0E948553C091CC
S214002A20B928D091BA28882359F00E949253C81723
S214002A30D907D9F2DF91CF912ACF80E090E0DECFA0
S214002A400E948D53C817D907A9F7CFCFCF92DF9230
S214002A50EF92FF920F931F93CF93DF931F92CDB702
S214002A60DEB78091B828882351F00F90DF91CF9180
S214002A701F910F91FF90EF90DF90CF9008950E94E6
S214002A8085530091B9281091BA2881115AC00E9426
S214002A908D530817190749F38FB78983F894C980AF
S214002AA0D090BB280D2D10E07801EE0CFF1CF7012E
S214002AB0E454F74D80819181892B09F458C0109217
S214002AC0B5281092B6288091B728811141C081E0C0
S214002AD0D11080E08093BB2881E08093B828CFBED9
S214002AE0F701E454F74D20813181DD24D39420345E
S214002AF0310509F45FC020343105A1F10E948553E9
S214002B00882309F459C00E9492538093B928909361
S214002B10BA28F701E454F74D20813181A80100243A
S214002B20569547950794569547950794542F402DEC
S214002B304054574D01EF14E16D2D81E80E940D556C
S214002B4094CF0E9492530817190709F0A5CF8DCF8E
S214002B5091E080E0D11090E0092F182F7801EE0C5C
S214002B60FF1CBACF1092B9281092BA28D7CF8091FE
S214002B70B5289091B62801968093B5289093B628EC
S214002B800E948553811107C08091B5289091B62880
S214002B908436910568F00E948553882309F48FCF08
S214002BA08091B5289091B6288032934008F087CF60
S214002BB0CFBE5BCFD12C9FCF0E948D538093B92878
S214002BC09093BA28F701E454F74D20813181A6CFBF
S214002BD00F931F93CF93DF931F921F92CDB7DEB74D
S214002BE01092C9291092B8281092B7281092BB28C4
S214002BF01092BC281092BD281092BE281092BF28B2
S214002C001092B9281092BA288091B828882309F41F
S214002C107AC01092402910924329109244291092AB
S214002C204529109246291092472910924129109260
S214002C3042298FB78983F8949981209143298091FE
S214002C404029811110C0A0914129B0914229422FFC
S214002C5050E0FA01EE0FFF1FEC5BF64D60817181CC
S214002C60A617B70748F49FBF80E00F900F90DF913C
S214002C70CF911F910F9108951092412910924229E9
S214002C8081E0211156C08093432981E0809340293A
S214002C909FBF8FB78A83F8948A812091412930910B
S214002CA04229E0914329F0E0EE0FFF1FEC5BF64D62
S214002CB0208131818FBF00245695479507945695FD
S214002CC047950794542F402D485B564D0BE916E167
S214002CD020E430E061E082E00E940D55882329F26E
S214002CE09091C9299F5F9093C9299091C9299130E5
S214002CF009F0BBCF9093C8290F900F90DF91CF912A
S214002D001F910F9108950E9485530091B928109144
S214002D10BA28811108C00E948D530817190709F4B4
S214002D2078CFB5DD76CF0E94925308171907C9F7FA
S214002D3070CF80E0A8CF0F931F93CF93DF931F929F
S214002D401F92CDB7DEB781112DC080914329E1E0F7
S214002D5081112FC0842F6115710581F1F0E0EE0F0F
S214002D60FF1FEC5BF64D60837183109240298FB78E
S214002D708983F89499812091432980914029811173
S214002D8010C0A0914129B0914229422F50E0FA018B
S214002D90EE0FFF1FEC5BF64D60817181A617B7073B
S214002DA040F59FBF0F900F90DF91CF911F910F912D
S214002DB00895E0E0842F6115710581F64E2F50E0EE
S214002DC00024569547950794569547950794542F93
S214002DD0402D485B564D0BE916E120E430E061E0FB
S214002DE00E940D550F900F90DF91CF911F910F917C
S214002DF00895109241291092422981E021112CC099
S214002E008093432981E0809340299FBF8FB78A83B0
S214002E10F8948A812091412930914229E0914329F2
S214002E20F0E0EE0FFF1FEC5BF64D208131818FBF87
S214002E300024569547950794569547950794542F22
S214002E40402D485B564D0BE916E120E430E061E08A
S214002E5082E00E940D55A6CF80E0D2CFCF92DF92BF
S214002E60FF920F931F93CF93DF9300D0CDB7DEB7BB
S214002E70FF24F3948091DE29893009F0F12C40E09C
S214002E8050E08FB78B83F894AB8120914129309125
S214002E9042298091432990E0FC01EE0FFF1FEC5B76
S214002EA0F64D60817181AFBF2617370780F080919D
S214002EB0C8298111E6CF90E02396CDBFDEBFDF9113
S214002EC0CF911F910F91FF90DF90CF900895FC0156
S214002ED00024F695E7950794F695E7950794FE2F58
S214002EE0E02DE85BF64DE20FF31F80816A01C82AE9
S214002EF02F5F3F4F20934129309342298FB7898314
S214002F00F89489812091432990914029911110C00D
S214002F10A0914129B0914229422F50E0FA01EE0FCC
S214002F20FF1FEC5BF64D60817181A617B70738F47A
S214002F308FBFFF20C1F15C2D4427F12CA2CF109249
S214002F4041291092422991E0211190E09093432963
S214002F5091E0909340298FBF8FB78A83F8948A8137
S214002F602091412930914229E0914329F0E0EE0F6B
S214002F70FF1FEC5BF64D208131818FBF00245695F4
S214002F8047950794569547950794542F402D485BD0
S214002F90564D0BE916E120E430E061E082E00E9445
S214002FA00D55F110C8CFC60187CF0F931F93CF934F
S214002FB0DF931F921F92CDB7DEB761E02091DE2926
S214002FC0293009F060E071E02FB72983F894598121
S214002FD04091BB28E42FF0E0EE0FFF1FE454F74DBE
S214002FE02081318120343105D9F15FBF203431058D
S214002FF069F42091C8292111E7CF80E090E00F9076
S2140030000F90DF91CF911F910F9108952FB72A83CC
S214003010F894AA812091BB2830E0F901EE0FFF1F3B
S214003020E454F74D408151818A010F5F1F4F0083A2
S214003030118300243695279507943695279507948F
S214003040322F202D2054374DF901E40FF51F8083D1
S214003050AFBF6623B9F0892F990F990B60E0B4CF04
S214003060E091B828E111C1CFE091B728E111BDCFBA
S2140030707093B72821E0411120E02093BB2820E080
S21400308030E0B3CF81E090E00F900F90DF91CF91CA
S2140030901F910F9108958091BE2D8F770C948753C2
S2140030A0E091E429F091E5290190F081E02D9481EA
S2140030B0891728F5E093E229F093E32922813381EA
S2140030C02E0F3F1FE217F30738F019C09081E90F63
S2140030D0F11DE217F30778F491819430B9F79281E5
S2140030E08913F4CF93819613F1CFE093E229F093FE
S2140030F0E32981E00895E093E229F093E32980E054
S2140031000895FF920F931F93CF93DF93F82EA0910D
S214003110E429B091E529E82FF0E0CF01880F991F48
S2140031201296ED91FC911397E80FF91F008111811B
S214003130D8011696ED91FC91179719959091E6296E
S214003140911107C080E0DF91CF911F910F91FF9002
S2140031500895E091E429F091E5290190F081E02DB1
S2140031609481F91678F7E093E229F093E329228117
S21400317033812E0F3F1FE217F30720F7EF0106C03B
S2140031809881C90FD11DC217D30730F599819430A5
S214003190B9F79A81F912F4CF9B818913F1CFC093C6
S2140031A0E229D093E32905C08981843041F0853037
S2140031B0C1F08881C80FD11DC217D307A8F3D80164
S2140031C01296ED91FC911397199581E0DF91CF91BE
S2140031D01F910F91FF900895C093E229D093E329A1
S2140031E0B1CF209761F38A810E941754E091E429B9
S2140031F0F091E5290190F081E02D228133812E0F98
S2140032003F1FD7CF0C94C252CF938091E6298823D4
S21400321009F446C0E091E429F091E529A081B18146
S21400322014969C9114979923D9F1C0E005C0CF5FFE
S214003230C917B0F58091E6298823C9F3C917B8F7EE
S214003240A093E229B093E32912962D913C9113970F
S2140032502A0F3B1FA217B30750F7FD0106C0808157
S214003260E80FF11DE217F30728F581818430B9F7DE
S2140032708281C813F4CF83818111F1CFE093E229D4
S214003280F093E3298C2F3DDFE091E429F091E529C6
S214003290A081B18114969C911497CF5FC91750F204
S2140032A01092E62981E090E08093EA299093EB293A
S2140032B0CF910895E093E229F093E329B8CFCF9316
S2140032C08091E629882349F1A091E429B091E52967
S2140032D0ED91FC91119724812223F9F0C0E0EC2FA8
S2140032E0F0E0EE0FFF1F12968D919C911397E80F5A
S2140032F0F91F0190F081E02D0084F185E02D3097D4
S21400330049F01995A091E429B091E529ED91FC9139
S21400331011972481CF5FC21710F3CF9108950F93B2
S2140033201F93CF93DF931092C62D1092C72D109245
S214003330C82D1092C92D1092CA2D1092CB2D8091B7
S214003340BC2D87FD11C0982F907609F494C0982F55
S2140033509F71913009F4B7C0923049F180E0DF9157
S214003360CF911F910F9108952091C22D3091C32DBA
S2140033702115310599F3982F907649F7982F9F716C
S21400338009F038C19091BD2D963009F41BC29830D3
S21400339009F40CC29111E2CF22303105F9F662E051
S2140033A070E08AEE99E20E94955381E0D8CF809132
S2140033B0E629882399F2A091E429B091E529ED91B8
S2140033C0FC9111978481882349F210E0E12FF0E008
S2140033D0EE0FFF1F12968D919C911397E80FF91F21
S2140033E0C081D181EE81FF8119959091E6299923BC
S2140033F009F4B4CFE091E429F091E5290190F08139
S214003400E02D9481191708F0A9CFE093E229F093F4
S214003410E329228133812E0F3F1FE217F30738F08E
S2140034209DCF9081E90FF11DE217F307F8F4918123
S2140034309430B9F792811913F4CF93818913F1CFA1
S214003440E093E229F093E329EC81FD81199581113F
S214003450ACCF1F5FA091E429B091E529ED91FC91D6
S21400346011978481181708F4B1CF78CFE093E2293A
S214003470F093E32973CF982F9F7109F074C0809161
S214003480BD2D853009F431C1893009F495C08130ED
S21400349009F064CF8091C22D9091C32D892B09F03D
S2140034A05DCF8091BE2D9091BF2D019709F056CF2C
S2140034B08091EA299091EB298D7F8093EA29909359
S2140034C0EB2981E04CCF8091E629882309F446CF8A
S2140034D02091C02D3091C12DC22FA091E429B0912A
S2140034E0E529ED91FC9111978481281708F036CFD5
S2140034F0E093E229F093E329428153814E0F5F1F48
S214003500E417F50740F02ACF8081E80FF11DE41795
S214003510F50708F0ABCF81818430B1F78281C813FC
S214003520F3CF83818111F0CFE093E229F093E32972
S214003530C9019927880F991F1296ED91FC91139750
S214003540E80FF91F00811181D80116968D919C9184
S2140035501797FC0119959091E629911167C19091F2
S214003560BC2D9F71F9CE913009F463C0923009F0FA
S214003570F0CE8091BD2D813009F4C6C0833009F0AD
S21400358016CF8091C22D9091C32D892B09F00FCFB5
S2140035908091BE2D9091BF2D892B09F008CF809188
S2140035A0C02D0E94C4558091C02D0E947F54811169
S2140035B0FCCE8091BC2DCBCE8091C22D9091C32D98
S2140035C0892B09F0CBCE0E948A53882379F020916C
S2140035D0BE2D3091BF2D3327E0911B20F0911C208B
S2140035E0818990E08217930708F069C19091BC2DFD
S2140035F09F71AFCE913009F49AC0923009F0A9CEEF
S2140036008091BD2D8111D3CE2230310509F0CFCE69
S2140036108091C02D0E94645490E08093E02990939E
S214003620E12962E070E080EE99E20E94955381E025
S21400363096CE9091BD2D9B3009F089CE8091C22DFB
S2140036409091C32D892B09F03ECF8091E6298823DF
S21400365009F484CE0091C02D1091C12DC091BE2DCD
S21400366060E0802F1DDD882309F4C0CF802F49DD60
S214003670882309F4BBCF8091E629882309F4B6CFC6
S2140036806C2F802F0DDD882309F4B0CFC091E2297E
S214003690D091E329E091E429F091E529A081B18158
S2140036A012968D919C9113979D01280F391F06C085
S2140036B08981843049F0853009F48EC18881C80F2D
S2140036C0D11DC217D307A0F3C8019927880F991FE9
S2140036D00280F381E02DE80FF91F0190F081E02DC4
S2140036E080819181FC01199562CF8091C22D9091C5
S2140036F0C32D892B09F032CE8BE498E18093C82D38
S2140037009093C92D81E02BCE8091C22D9091C32D30
S214003710892B09F04CCE8091BE2D9091BF2D892B20
S21400372009F045CE8091C02D0E94CD5440CF909197
S214003730BD2D9A3009F00BCE8091E6292130310557
S21400374009F0C3CE882309F409CEC091C02DD091CC
S214003750C12D0091E4291091E529D801ED91FC9145
S2140037609481C91708F0B1CE60E08C2F99DC8823CD
S21400377009F43CCFCE019927880F991FD8011296DD
S214003780ED91FC911397E80FF91F0190F081E02D61
S21400379086819781FC0119958093E82961E070E0A5
S2140037A088EE99E20E94955381E0D9CD213031050B
S2140037B009F0D4CD61E070E086EE99E20E94955360
S2140037C081E0CDCD2091BE2D3091BF2D432F5527C2
S2140037D04230510509F41AC108F463C0433051055C
S2140037E009F40BC14F30510509F0B8CD80911F2068
S2140037F090912020009709F4B1CDDC0112966D91CE
S2140038007C9113970E9495538091C22D9091C32D61
S2140038102091C62D3091C72D8217930708F0C5CD8D
S2140038208093C62D9093C72D81E099CDE091E42931
S214003830F091E5290190F081E02D9481C91708F0F8
S2140038408ECEE093E229F093E329228133812E0F76
S2140038503F1FE217F30738F082CE9081E90FF11D83
S214003860E217F307C8F491819430B9F79281C9132F
S214003870F4CF93818913F1CFE093E229F093E32903
S214003880D80114968D919C911597FC011995882363
S21400389009F465CE81E063CDE093E229F093E32955
S2140038A05ECE4130510509F059CD80911B20909194
S2140038B01C20DC016C9170E00E949553A5CFA4DC1F
S2140038C08091BE2D9091BF2D8093E629882309F420
S2140038D06CCD99278150904C880F991F880F991F9F
S2140038E0E0911D20F0911E20E80FF91FE093E429D7
S2140038F0F093E529C081D1819C81992309F455CDA7
S21400390010E0191708F072CEC093E229D093E3298D
S2140039108A819B818C0F9D1FC817D90740F066CE01
S2140039202881C20FD11DC817D90708F061C02981A8
S2140039302430B1F72A811213F3CF2B812111F0CF57
S214003940C093E229D093E329E091E429F091E52998
S214003950A081B18112968D919C9113979D01280F9D
S214003960391F05C08981843041F0853051F1888146
S214003970C80FD11DC217D307A8F3812F90E0880F78
S214003980991F0280F381E02DE80FF91F0190F08166
S214003990E02D80819181FC011995882309F426CEBB
S2140039A01F5FE091E429F091E529C081D1819C81D7
S2140039B0191708F0FACC8091E629882309F416CE68
S2140039C0A0CF2097D1F24C815D816B818A810E94C5
S2140039D09C538111B9CF0ACE209709F475CE4C813D
S2140039E05D816B818A810E949C53811153CEFECDEE
S2140039F0C093E229D093E329F9CD2111A8CC64E045
S214003A0070E080E890E20E949553FECEE0911B2085
S214003A10F0911C208189281708F0A0CCC9019927AD
S214003A20880F991F880F991FE0911D20F0911E2086
S214003A30E80FF91F80819181FC01628173810E94E9
S214003A409553E091C42DF091C52D82E08183DCCEA4
S214003A50CF93DF931F92CDB7DEB78091B22D9091B2
S214003A60B32DE091AE2DF091AF2DBE016F5F7F4F6D
S214003A7019958981082E000C990B0F90DF91CF9134
S214003A800895CF93DF938091EC29811105C0FB0147
S214003A901082DF91CF910895EB01E0D98883DF9102
S214003AA0CF9108958091EC29811103C080E090E0C9
S214003AB00895862F082E000C990B77DA21E030E067
S214003AC0892B29F488279927821B930B089520E0D9
S214003AD030E088279927821B930B089581E0809316
S214003AE0EC2908951092B22D1092B32D82E59DE137
S214003AF08093B02D9093B12D81E49DE18093AE2DFF
S214003B009093AF2D7FDB68E27DE189E89DE10C9420
S214003B100A81682F8091B22D9091B32DE091B02D3F
S214003B20F091B12D199597FD03C081E090E00895BE
S214003B308FEF9FEF0895CF93823018F081E0CF91FA
S214003B400895C82F0E948E13833029F48C2F0E946C
S214003B508E13833099F38111F1CF8C2F0E949E1320
S214003B60882369F384E0EBCF0E948E13882331F01C
S214003B70823011F483E0089581E0089580E008958E
S214003B802F923F924F925F926F927F928F929F9268
S214003B90AF92BF92CF92DF92EF92FF920F931F9356
S214003BA0CF93DF93CDB7DEB72B97CDBFDEBF782E92
S214003BB06B87672E69017A010E949913182F81116D
S214003BC017C081E02B96CDBFDEBFDF91CF911F914E
S214003BD00F91FF90EF90DF90CF90BF90AF909F90A7
S214003BE08F907F906F905F904F903F902F900895AA
S214003BF0BE016F5F7F4F872D0E949313E12FF0E089
S214003C00212E312C412C512C019FC0011124092E4C
S214003C10000CAA0BBB0B4C015D018C0C9D1CAE1C52
S214003C20BF1C89819A81AB81BC819C01AD012F5F4D
S214003C303F4F4F4F5F4FC201B1010E94397F681559
S214003C4079058A059B0510F484E0BCCF802F90E0B0
S214003C50A0E0B0E08D839E83AF83B887892B8A2B44
S214003C608B2B59F1DF01BA2FAA27BB0FA987BA877A
S214003C700B85162D812C912C540116C0BFEF8B1A84
S214003C809B0AAB0ABB0AC20CD31CE41CF51C898534
S214003C909A85080F191F8D819E81AF81B885881679
S214003CA09906AA06BB0648F49801B701A601872D17
S214003CB00E94A313882311F384CF80E083CF2F9232
S214003CC03F924F925F926F927F928F929F92AF92A7
S214003CD0BF92CF92DF92EF92FF920F931F93CF93F4
S214003CE0DF93CDB7DEB72B97CDBFDEBF782E6B87C1
S214003CF0672E69017A010E949913182F811117C047
S214003D0081E02B96CDBFDEBFDF91CF911F910F9143
S214003D10FF90EF90DF90CF90BF90AF909F908F90E6
S214003D207F906F905F904F903F902F900895BE01C8
S214003D306F5F7F4F872D0E949313E12FF0E0212EB7
S214003D40312C412C512C019FC0011124092E000C4E
S214003D50AA0BBB0B4C015D018C0C9D1CAE1CBF1C42
S214003D6089819A81AB81BC819C01AD012F5F3F4F59
S214003D704F4F5F4FC201B1010E94397F6815790528
S214003D808A059B0510F484E0BCCF802F90E0A0E06D
S214003D90B0E08D839E83AF83B887892B8A2B8B2BCD
S214003DA059F1DF01BA2FAA27BB0FA987BA870B855F
S214003DB0162D812C912C540116C0BFEF8B1A9B0A2E
S214003DC0AB0ABB0AC20CD31CE41CF51C89859A8579
S214003DD0080F191F8D819E81AF81B88588169906B8
S214003DE0AA06BB0648F49801B701A601872D0E94D3
S214003DF0B913882311F384CF80E083CF0F931F93EA
S214003E00CF93DF9300D01F92CDB7DEB78A01613023
S214003E10C9F158F16230A1F06330F1F481E090E02E
S214003E20A0E0B0E0FA0180839183A283B38380E0B0
S214003E302496CDBFDEBFDF91CF911F910F910895DD
S214003E400E9499139FEF980F9230C0F18430B1F121
S214003E508830A1F181E0ECCF84E02496CDBFDEBFB0
S214003E60DF91CF911F910F9108950E948E138823A2
S214003E7019F183E02496CDBFDEBFDF91CF911F916D
S214003E800F910895BE016F5F7F4F0E949313898143
S214003E909A81AB81BC810196A11DB11DF80180837A
S214003EA09183A283B38380E02496CDBFDEBFDF91EB
S214003EB0CF911F910F91089580E0BACFF80110823C
S214003EC080E02496CDBFDEBFDF91CF911F910F918A
S214003ED008950F931F93CF93DF93CDB7DEB7289740
S214003EE0CDBFDEBF0E94E04EAE014F5F5F4F0E9427
S214003EF01A126E817F816C5B7740762F6627770F6C
S214003F008C8190E00196682B792B2D8130E02F5F15
S214003F103F4F220F331F22953295307F3227207F66
S214003F203227622B732BCB01A0E0B0E0DC0199278F
S214003F3088276B8170E0762F6627770F770F770FCD
S214003F402A8100E2209F90011124622B732B298185
S214003F502695622BAB01770F660B770B8A019B01C8
S214003F60082B192B2A2B3B2BC901B8012896CDBF4D
S214003F70DEBFDF91CF911F910F910895AF92BF9250
S214003F80CF92DF92EF92FF920F931F93CF93DF9320
S214003F90FB01DB011996EC014E855F8568897989FE
S214003FA0452B462B472B09F48FC00A891B89E8014D
S214003FB02C8523FDDEC03881303209F44DC0353003
S214003FC009F47FC1DF011A963187E8013981303262
S214003FD009F442C0353009F476C1DF011B963287FA
S214003FE0E8013A813032C1F1353009F46EC1DF01A3
S214003FF01C963387E8013B81303271F1353009F485
S21400400066C1DF011D963487E8013C81303221F11C
S214004010353009F468C1DF011E963587E8013D8119
S2140040203032D1F0353009F460C1DF011F96368793
S214004030E8013E81303281F0353009F45AC1DF01A3
S21400404050963787E8013F81303231F0353009F439
S21400405040C1DF015196308BE8013885303209F1D6
S214004060AD014F5F5F4F3EE23C9324FD00C12885C3
S214004070203209F446C14F5F5F4F11962C9311977B
S2140040802985203209F43DC14F5F5F4F12962C936D
S21400409012972A85203209F434C113962C9313976D
S2140040A01496E8012B8520874C8D5D8D6E8D7F8D57
S2140040B04083518362837383288D398D24833583AF
S2140040C02E893F89268337831C92C688D788C114D9
S2140040D0D104A9F0208D318D232B89F0DC011E96AA
S2140040E04D915D916D917C915197452B462B472BB9
S2140040F089F400E010E0F601E00FF11F1082DF9176
S214004100CF911F910F91FF90EF90DF90CF90BF90CF
S214004110AF900895EC01288D398D2F3F3F4F49F31E
S214004120EC01AE89BF897D01D2E0ED0EF11C8D91C8
S2140041309C910097F1F2EF01560100E010E012C0EA
S214004140288D398D215031090217130790F60F5F1D
S2140041501F4FF50181935F01D7018D919D917D01E0
S214004160009749F260E070E00E94994E009741F790
S214004170C0CFE8013881303209F46ECF353009F40B
S2140041809EC04FEB430F4A3108F4305EDF011A96AB
S2140041903187E8013981303209F45ECF353009F4D1
S2140041A09AC04FEB430F4A3108F4305EDF011B968E
S2140041B03287E8013A81303209F44ECF353009F4BF
S2140041C08CC04FEB430F4A3108F4305EDF011C967B
S2140041D03387E8013B81303209F43ECF353009F4AD
S2140041E07EC04FEB430F4A3108F4305EDF011D9668
S2140041F03487E8013C81303209F42ECF353009F49B
S21400420070C04FEB430F4A3108F4305EDF011E9654
S2140042103587E8013D81303209F41ECF353009F488
S21400422066C04FEB430F4A3108F4305EDF011F963D
S2140042303687E8013E81303209F40ECF353009F476
S2140042405AC04FEB430F4A3108F4305EDF015096F8
S2140042503787E8013F81303209F4FECE3530C9F1A8
S2140042604FEB430F4A3108F0F4CE305EF2CEE80151
S2140042702885203209F445C03FEB320F3A31E8F189
S214004280AD014E5F5F4F11962C931197E80129857B
S2140042902032B9F13FEB320F3A3188F1AD014D5F74
S2140042A05F4F12962C931297E8012A85203249F127
S2140042B03FEB320F3A3108F0F0CE205EEECE35EE10
S2140042C065CF35EE7FCE35EE88CE35EE90CE35EE28
S2140042D098CE35EEBECE35EE69CF35EE77CF35EEDD
S2140042E085CF35EE93CF35EE96CE35EE9ECE35EEB7
S2140042F09DCF35EEA4CE35EEA9CF205EC1CF205E91
S214004300CDCFDA01CECE4F925F926F927F92AF9270
S214004310BF92CF92DF92EF92FF920F931F93CF93AD
S214004320DF93FC01C2A4D3A4E4A4F5A4C416D50666
S214004330E606F70659F02A013B01EC01848181115B
S21400434024C0411451046104710481F480E0DF91BB
S214004350CF911F910F91FF90EF90DF90CF90BF907D
S214004360AF907F906F905F904F90089501E0A3010B
S2140043709201BE01625D7F4F898102DC81113AC0E5
S2140043804AA65BA66CA67DA6E2CF5F01FEE2AF0E54
S214004390B11C01E0A7019601B501898190DC81116D
S2140043A029C01C828A8D9B8DAC8DBD8D4E8D5F8DF8
S2140043B068A179A1480F591F6A1F7B1FC416D5062E
S2140043C0E606F70608F0BDCF1B81123028F4B9CFF9
S2140043D08A8D9B8DAC8DBD8DC80ED91EEA1EFB1E28
S2140043E001E0A7019601B501898169DC1150113001
S2140043F079F7A7CF81E0ABCFAF92BF92CF92DF9293
S214004400EF92FF920F931F93CF93DF93EC01CAA412
S214004410DBA4ECA4FDA4C114D104E104F10419F05A
S2140044208C8181111AC08881833009F44CC040E029
S21400443050E060E08981E2DC91E0882361F0892F1A
S214004440DF91CF911F910F91FF90EF90DF90CF906B
S214004450BF90AF90089590E0F2CF5E012EE2A20EDC
S214004460B11C01E0A7019601B501898128DC811104
S21400447028C01C828A8D9B8DAC8DBD8D4E8D5F8D28
S21400448068A179A1480F591F6A1F7B1FC416D5065D
S214004490E606F70640F61B81123028F4C4CF8A8D54
S2140044A09B8DAC8DBD8DC80ED91EEA1EFB1E01E08D
S2140044B0A7019601B501898102DC1150113079F708
S2140044C0B2CF91E0BCCF8D81882309F4B0CF1AA675
S2140044D01BA61CA61DA680E092E0BE01625D7F4F73
S2140044E0FB019C01119221503040E1F785E5FE0169
S2140044F0E45DFD4F80838AEA3196808382E58EA74D
S2140045008FA781E688AB91E499AB22E77B9720835F
S2140045103196208331969083319680833E852F8511
S2140045209889898931963083319620833196908395
S214004530319680833A852B859C858D853196308390
S2140045403196208331969083319680832A893B89E1
S2140045504C895D8901E08981B2DB1D8268CF2F928C
S2140045603F924F925F926F927F928F929F92AF92FE
S214004570BF92CF92DF92EF92FF920F931F93CF934B
S214004580DF9300D01F92CDB7DEB78B839C836A0182
S2140045907B01FC018081823009F4E1C0833009F49C
S2140045A073C08130C9F06FEF7FEFCB012496CDBF8B
S2140045B0DEBFDF91CF911F910F91FF90EF90DF90BC
S2140045C0CF90BF90AF909F908F907F906F905F90AE
S2140045D04F903F902F9008951A0136942794240EFA
S2140045E0351E468D578D60A171A1C101892F99276F
S2140045F086952A013B01480E591E611C711C82A437
S21400460093A4A4A4B5A4481459046A047B0479F0BE
S2140046108481811167C1411451046104710409F059
S214004620A0C1EB81FC81468D578D60A171A1F1017F
S214004630F1702B813C81E20FF31F16A53FEF231A82
S214004640330AC101892F99278695480F591F611D86
S214004650711D8B819C8157DE8111A5CFF1E03F2231
S2140046602B813C81220D331DF90186A5612F70E058
S214004670782BC0FE8EC1729562956F7067277F702B
S214004680672780E090E092CFEB81FC81868C978C48
S214004690A0A0B1A0DB01CA0117E0B695A795979533
S2140046A087951A95D1F7880E991EAA1EBB1E42A49E
S2140046B053A464A475A484149504A604B704D9F07E
S2140046C084818111D4C081149104A104B10499F0AD
S2140046D001E0A50194016B817C81625D7F4FEB81D7
S2140046E0FC8181814DDA81115ECFEB81FC8182A64F
S2140046F093A6A4A6B5A6CC0CDD1CEE1CFF1CCC0C09
S214004700DD1CEE1CFF1CFCEFCF22F1E0DF22EE24C6
S214004710FF24F601BE962B813C81E20FF31F238116
S2140047206281862F90E0A0E0B0E0DC019927882720
S214004730AC01BD01722B818190E0982F8827A0E004
S214004740B0E0842B952BA62BB72BEB81FC81EC0DD0
S214004750FD1D26A5822BBC01CD019F7027CF852E7F
S214004760962EA72EBB24EB81FC81868D978DA0A16B
S214004770B1A1880E991EAA1EBB1E42A453A464A40F
S21400478075A484149504A604B704D9F08481811115
S21400479033C081149104A104B10499F001E0A5018D
S2140047A094016B817C81625D7F4FEB81FC8181810E
S2140047B0E7D98111F8CEEB81FC8182A693A6A4A648
S2140047C0B5A6CC0CDD1CEE1CFF1CE894C0F881E0FE
S2140047D0D822EE24FF24EB81FC81EC0DFD1D67A59D
S2140047E070E0762F6627EB81FC81EC0DFD1D86A51B
S2140047F0682B80E090E0DACE1F01FEE22F0E311C1F
S21400480001E0A3019201B101EB81FC81818157DABD
S2140048108111C9CEEB81FC811482828D938DA48D8B
S214004820B58D468D578D60A171A1480F591F6A1F1F
S2140048307B1F441655066606770608F0AACF138136
S214004840123038F4A6CFEB81FC81828D938DA48D37
S214004850B58D480E591E6A1E7B1E01E0A30192010B
S214004860B10181812CDA1150113069F792CF1F0106
S214004870FEE22F0E311C01E0A3019201B101EB8193
S214004880FC8181811CDA81118ECEEB81FC81148241
S214004890828D938DA48DB58D468D578D60A171A1A7
S2140048A0480F591F6A1F7B1F441655066606770673
S2140048B008F009CF1381123038F405CFEB81FC8164
S2140048C0828D938DA48DB58D480E591E6A1E7B1E53
S2140048D001E0A3019201B1018181F1D9115011309B
S2140048E069F7F1CE2B813C81225D3F4F29833A83C5
S2140048F001E0A501940169817A81EB81FC818181C7
S214004900DED9811150CEEB81FC811482828D938D8D
S214004910A48DB58D468D578D60A171A1480F591F86
S2140049206A1F7B1F84169506A606B70608F073CE88
S2140049301381123038F46FCEEB81FC81828D938D1B
S214004940A48DB58D880E991EAA1EBB1E01E0A5017A
S214004950940169817A818181B2D91150113061F751
S2140049605ACE01E0A30192016B817C81625D7F4F8C
S214004970EB81FC81818104D9811115CEEB81FC810C
S21400498042A653A664A675A6468D578D60A171A152
S2140049904ECE7F7080E090E009CECF92DF92EF920D
S2140049A0FF920F931F93CF93DF938C01EB01DC01F3
S2140049B014966D937C93159716964D915D916D9117
S2140049C07C911997413051056105710561F0DC0154
S2140049D0ED91FC9186899789A08DB18D481759076E
S2140049E06A077B0750F082E0DF91CF911F910F910D
S2140049F0FF90EF90DF90CF90089541155105610527
S214004A00710509F045C020812330C1F1D8011A96FE
S214004A101D921D921D921C921D9780859185C81728
S214004A20D90708F782A193A1A4A1B5A19E0132954A
S214004A3022952F7023273F702327AC01BD01420F1C
S214004A40531F611D711DD8011E964D935D936D9386
S214004A507C935197BE96CF70DD27CC0FDD1FC29595
S214004A60D295D07FDC27C07FDC27EC0FFD1FD80156
S214004A705296ED93FC93539780E0B6CF42A153A194
S214004A8064A175A1411551056105710509F4BECFF4
S214004A90E28020E1E29E70011124CE15DF0520F5AC
S214004AA030C0CF015CDDAB01BC014F3F8FEF580734
S214004AB06807780709F44DC0423051056105710555
S214004AC008F491CFD801ED91FC9186899789A08D45
S214004AD0B18D481759076A077B0708F084CFCE19AF
S214004AE0DF09CE15DF0568F0423051056105710516
S214004AF008F479CF481759076A077B0708F073CF81
S214004B00D0CFD8011A964D935D936D937C931D97E5
S214004B109A01AB01225031094109510986899789CA
S214004B20A08DB18D0297A109B109281739074A0748
S214004B305B0788F4A281B0E00E94A07FC6A0D7A041
S214004B40E0A4F1A4DC01CB018C0D9D1DAE1DBF1DA4
S214004B506DCF81E049CF80E090E0DC0167CF2F92F7
S214004B603F924F925F926F927F928F929F92AF92F8
S214004B70BF92CF92DF92EF92FF920F931F93CF9345
S214004B80DF935C01DC01CD91DC9111971E964D9070
S214004B905D906D907C90519722242A941FEFCAA4B2
S214004BA0DBA4ECA4FDA4C414D504E604F70449F081
S214004BB08C8181113EC1411451046104710409F0D5
S214004BC028C1F501C289D38988818823A1F09B85F5
S214004BD0292F2F73853E29F093FFA5C02F3009F4A7
S214004BE04AC01FEFD5011496ED90FC901597BFEFC5
S214004BF0EB1AFB0AA1F484E0DF91CF911F910F918D
S214004C00FF90EF90DF90CF90BF90AF909F908F90E7
S214004C107F906F905F904F903F902F900895F50192
S214004C204684578460887188411451046104710475
S214004C3011F36701FFE0CF22DD24C114D10409F48B
S214004C4034C1D501CD91DC91D5011496ED92FC923C
S214004C501597CC0CDD1CC294D29480EFD822DC24AD
S214004C60C822DC24CE018E96C80ED91E5296CD924E
S214004C70DC92539794CFF501E688F788E114F104A7
S214004C8009F4B0CF86FF0EC12D84182F1F7B8481B8
S214004C909581808F918F5D845210A3CF888190E09C
S214004CA08F7B0197FDE0F89F4001F99F900C11243F
S214004CB087E0C82E82E2D82E81E090E00AC02F3F1F
S214004CC03F4F09F03DC124E132E22C153D0509F4C1
S214004CD029C1D6012D916D01FE01E20FF11D218142
S214004CE030E0322F22274081242B009741F3C90160
S214004CF00E94C04E3C01BFEF8B16910408F020C105
S214004D001401EFEF2E1A3E0A880C991CF701E80DE5
S214004D10F91D808191810E94C04E6816790609F0BF
S214004D200FC14101D0CF2F3009F4A5CF111135C0E6
S214004D3080FB879587F99981890F80FB879587F98E
S214004D409A81890F80FB879587F99B81890F80FB65
S214004D50879587F99C81890F80FB879587F99D81C8
S214004D60890F80FB879587F99E81890F80FB879541
S214004D7087F99F81890F80FB879587F99885890F2A
S214004D8080FB879587F99985890F80FB879587F93A
S214004D909A85890F821509F43AC0EFEFFFEFD50127
S214004DA05896ED93FC9359975496ED91FC91559730
S214004DB0838580FD16CF98818081981312CF9981C4
S214004DC0818198130ECF9A81828198130ACF9B8196
S214004DD08381981306CF9C818481981302CF9D818E
S214004DE085819813FECE9E8186819813FACE9F8188
S214004DF087819813F6CE988580859813F2CE99858C
S214004E0081859813EECE9A8582859813EACE80E047
S214004E10F3CE01E0A3019201BE01625D7F4F89815E
S214004E200E94C01D81113CC04AA65BA66CA67DA64A
S214004E30C8CE4E01BEE28B0E911C01E0A701960182
S214004E40B40189810E945F1E81112AC01C828A8D4E
S214004E509B8DAC8DBD8D4E8D5F8D68A179A1480F61
S214004E60591F6A1F7B1FC416D506E606F70608F00C
S214004E70A2CE3B80031528F09ECE8A8D9B8DAC8DEE
S214004E80BD8DC80ED91EEA1EFB1E01E0A7019601C5
S214004E90B40189810E945F1E3A943012EECF8BCE09
S214004EA081E0AACE81139DCEF6CEBFEF4B1A5B0AE9
S214004EB06B0A7B0AF50146865786608A718A4285A8
S214004EC0538564857585411551056105710549F45D
S214004ED0C081D18188859985E816F90608F08BCEC1
S214004EE0B3CEC081D1818A8190E001979701329537
S214004EF022952F7023273F70232782239323892B05
S214004F0009F0A2CE423051056105710548F08E8940
S214004F109F89A88DB98D481759076A077B07B0F097
S214004F2082E06ACE288126FF0EC0892B61F0F4014C
S214004F30EE0FFF1FEE0DFF1D80819181892B19F06A
S214004F40252C1FEF4FCE1150252C4CCECE0107DB63
S214004F50623071058105910518F36F3FBFEF7B073F
S214004F608B079B0709F49CCFF501C081D1814E8841
S214004F705F88688C798C641575058605970508F03A
S214004F803ACE62877387848795879B01AC0122504F
S214004F903109410951098E899F89A88DB98D0297DB
S214004FA0A109B109281739074A075B0790F4AA81B7
S214004FB0B0E00E94A07F4EA05FA068A479A4460E31
S214004FC0571E681E791EF50146865786608A718AC6
S214004FD03BCE412C512C3201F6CF2F923F924F926E
S214004FE05F926F927F928F929F92AF92BF92CF9274
S214004FF0DF92EF92FF920F931F93CF93DF936C0194
S214005000EB0188818F3209F4C3C18C3509F4C0C125
S214005010D60116961D921D921D921C921997888194
S214005020803208F4DCC1B0E25B2E15E0212E4E0182
S214005030888121968F32D9F38C35C9F3D6015696DE
S214005040AD90BC905797082E000C990B80329105B6
S21400505008F461C18F32910509F451C0750101E071
S21400506010E061E070E090E00E94994E009799F1A0
S2140050708038910578F48232910569F1E8E7F1E22B
S21400508006C0022E000C330B8217930721F12191E4
S2140050902111F7CFF701819391937F0198012F5F3C
S2140050A03F4F8991082E000C990B8032910508F429
S2140050B036C18F32910539F18C35910521F12115D4
S2140050C0B1E03B0741F0890161E070E090E00E94AA
S2140050D0994E009769F686E0DF91CF911F910F9168
S2140050E0FF90EF90DF90CF90BF90AF909F908F9003
S2140050F07F906F905F904F903F902F90089500E0C4
S21400510010E021E030E0E401C20FD31F412C01156E
S214005110110509F3F801EE0FFF1FEA0DFB1D929132
S21400512082918032910511F08E9721F40150110979
S214005130B1F7D1CFF801EE0FFF1FA5014E0F5F1F8D
S214005140DA011D921C92D6015496ED91FC9155976A
S214005150508251825282538254825582568257829E
S214005160508651865286F501E12CF12C03C02FEFB4
S214005170E21AF20A8191919180329105C1F38E3242
S2140051809105A9F3E114F10419F0A42DA3604A2EA9
S214005190FA01329122912E32310519F0015011098F
S2140051A0C1F778E0672E712C812C912C312CBFEF43
S2140051B0EB1AFB0A009709F44FC08032910569F19B
S2140051C08E32910539F186149704B0F5E016F10693
S2140051D009F4ABC08038910508F0B5C08B32910554
S2140051E009F4C2C0E1E8F1E207C0022E000C330B5E
S2140051F02817390709F4B8C021912111F6CF9C0170
S214005200215431092A31310508F0F1C0232D2260DE
S214005210322EAEC0E016F10659F0E42DE3604E2EB5
S214005220F701EE0FFF1FEA0DFB1D80819181BFCFB6
S2140052308614970408F479C0FBE06F16710409F42D
S214005240ACC0E016F10609F474C0B42DB3604B2E62
S2140052500E151F0508F06DC0D6015496ED91FC9111
S21400526055978081853E09F4A7C0B8E06B16710497
S21400527009F490C0832D8C708C3009F485C0932D72
S2140052809370933009F480C041FC08C0932D93704E
S214005290913009F4A0C0843009F499C0438660E0D8
S2140052A070E0C6017ADB811129C0C60158DCD60140
S2140052B05496ED91FC9155979385811125C092FDEA
S2140052C00BCFD6015296ED91FC915397838584FFC0
S2140052D020C084899589A0E0B0E0DC019927882762
S2140052E0428D538D60E070E0842B952BA62BB72B58
S2140052F0F60186839783A087B18799CED601549608
S214005300ED91FC9155979385843009F0E5CE92FD9A
S214005310E3CE85E0E1CE00E010E021E030E0E401FD
S214005320C20FD31F94E0492EF2CEBBE06B16710479
S214005330A1F1330C330C78014BE0642E712C58E04D
S214005340852E912C6DCF60E070E00E94994E0097FC
S214005350D1F1FC01E95FFE4D808190E0E42DE26032
S2140053604E2E009709F03ACFF42DF3604F2E8FE5BE
S214005370D6015496ED91FC915597E80DF91D808362
S214005380F40131964F014CCF242D2260422E7CCF63
S21400539021963ECE330C330C6DCF242D2360422E47
S2140053A0D6015496ED91FC9155978081853E09F083
S2140053B061CF3BE0632E712C2082D6015496ED918E
S2140053C0FC91559752CFE42DE2604E2ECDCF842D22
S2140053D08860482E63CF442D4061442E5CCF60E049
S2140053E070E0C601DADAF601128A138A75CE9C01DD
S2140053F0215631092A31310508F0BACF432D4160D4
S214005400342E8052B5CF2F923F924F925F926F927A
S2140054107F928F929F92AF92BF92CF92DF92EF923F
S214005420FF920F931F93CF93DF937C01DC011E96B0
S2140054308D909D90AD90BC90519781149104A104DD
S214005440B10409F441C0CD91DC9122242A9433247E
S2140054503A944AA45BA46CA47DA4481459046A0434
S2140054607B04A1F08C816E018111FAC0BEE2CB0EE6
S214005470D11C01E0A5019401B60189810E94C01DDE
S2140054808111ECC08AA69BA6ACA6BDA6D7015296F3
S214005490ED91FC91539780818823B1F0853E51F0C1
S2140054A08E3241F09385292F2F7393FF50C02F30F3
S2140054B009F450C033243A94D70114960D911C91E8
S2140054C015970F5F1F4FC9F484E0F70116861786FD
S2140054D0108A118ADF91CF911F910F91FF90EF9064
S2140054E0DF90CF90BF90AF909F908F907F906F90FF
S2140054F05F904F903F902F9008951E968D909D90B0
S214005500AD90BC90519781149104A104B104E1F2CE
S214005510C8018F709927009709F4DBC0CD91DC9104
S214005520119714960D931C9315979E01225D3F4F7D
S214005530880F991F82959295907F9827807F98274D
S214005540820F931F52968D939C93539782CF2F3042
S21400555009F00EC186FFBAC025848F7B382ED7018E
S21400556014968D919C91159758968D939C93599768
S214005570858528129FCFD70156964D915C915797F7
S21400558080818F7390E00197BDE0B89F9001B99F2E
S214005590300D1124C181D2812F3F310508F08ACF0A
S2140055A0C9010196D901AA0FBB1FA40FB51FCD9341
S2140055B0DC9363817481CD2B09F0E4C06F3F7F4F8D
S2140055C009F078CFC581D681219609F073CF67811F
S2140055D070856F3F7F4F09F06DCFC185D2852196CC
S2140055E009F068CF668577856F3F7F4F09F062CFF9
S2140055F0C089D189219609F05DCF628973896F3F92
S2140056007F4F09F057CFC489D589219609F052CF2C
S214005610668977896F3F7F4F09F04CCFC08DD18D5B
S214005620219609F047CF648D758D6F3F7F4F09F047
S21400563041CFC68DD78D219609F03CCF208126FF1D
S2140056400BC08F3F910509F435CF880F991FFA01DB
S214005650E80FF91F108211823A942ECF81E035CFE1
S214005660EEE2CE0ED11C01E0A3019201B6018981C3
S2140056700E945F1E8111F2CF1C828A8D9B8DAC8D9D
S214005680BD8D4E8D5F8D68A179A1480F591F6A1F89
S2140056907B1F441655066606770608F0EACE1B8181
S2140056A0123028F4E6CE8A8D9B8DAC8DBD8D480ECB
S2140056B0591E6A1E7B1E01E0A3019201B601898174
S2140056C00E945F1E1150113071F7D3CE8311F2CEB7
S2140056D04FCFBFEF8B1A9B0AAB0ABB0AF701868631
S2140056E09786A08AB18A428553856485758541155B
S2140056F0510561057105D9F4C081D18188859985E8
S2140057000817190708F0E0CED70114960D931C93DE
S2140057101597CE018E9652968D939C93539781142F
S2140057209104A104B10409F094CE80E0D3CEC081E8
S214005730D1818A8190E001979801329522952F7049
S21400574023273F70232782239323892BE9F64230B1
S21400575051056105710550F08E899F89A88DB98D18
S214005760481759076A077B0708F4F6C082E0ADCEF3
S214005770332009F4BBC08FEF9FEFF701808F918F26
S21400578080E0A8CE8F3F910509F494CE89010E5F84
S2140057901F4F880F991FDA01A80FB91F6D937C93CE
S2140057A01197C581D681672B09F41FC10F3F1105DC
S2140057B009F480CEC90103961296CD93DC93139715
S2140057C067817085CD2B09F404CF8F3F910509F4CE
S2140057D071CEC901049614966D937C931597C18576
S2140057E0D285672B09F4FBCE8F3F910509F462CE74
S2140057F0C90105961696CD93DC931797668577852F
S214005800CD2B09F4F1CE8F3F910509F453CEC90193
S214005810069618966D937C931997C089D189672B45
S21400582009F4E8CE8F3F910509F444CEC9010796E6
S2140058301A96CD93DC931B9762897389CD2B09F456
S214005840DECE8F3F910509F435CEC90108961C9629
S2140058506D937C931D97C489D589672B09F4D5CEA3
S2140058608F3F910509F426CEC90109961E96CD9361
S214005870DC931F9766897789CD2B09F4CBCE8F3FB3
S214005880910509F417CEC9010A9650966D937C933C
S2140058905197C08DD18D672B09F4C2CE8F3F9105ED
S2140058A009F408CEC9010B965296CD93DC93539714
S2140058B0648D758DCD2B09F4B8CE8F3F910509F414
S2140058C0F9CDC9010C9654966D937C935597C68D69
